:0200000460009A
:100000006F00C0006F0000006F0040039702000007
:10001000938202037390523073500030735030302B
:100020007350203073504030970100209381817DC0
:1000300017110020130101536F004027130101F82D
:1000400023201100232221002324310023264100F4
:1000500023285100232A6100232C7100232E8100C4
:10006000232091022322A1022324B1022326C102CC
:100070002328D102232AE102232CF102232E01039B
:1000800023201105232221052324310523264105A0
:1000900023285105232A6105232C7105232E810570
:1000A000232091072322A1072324B1072326C10778
:1000B0002328D107232AE107232CF107F322103448
:1000C000232E510673252034F32510341306010026
:1000D000EF00404673101534B7220000938202806F
:1000E00073A002308320010003214100832181009D
:1000F0000322C100832201010323410183238101E3
:100100000324C101832401020325410283258102C6
:100110000326C102832601030327410383278103AA
:100120000328C1038328010403294104832981048E
:10013000032AC104832A0105032B4105832B810572
:10014000032CC105832C0106032D4106832D810656
:10015000032EC106832E0107032F4107832F81073A
:100160001301010873002030130101FF9305000003
:10017000232481002326110013040500EF00000250
:10018000B707008003A587008327C50363840700A2
:10019000E780070013050400EF004053130101FD41
:1001A000B7070080232E310183A98700232C41014A
:1001B000232A5101232861012326110223248102CD
:1001C000232291022320210323267101930A050093
:1001D000138A0500130B100083A48914638C040098
:1001E00003A444001309F4FF13142400338484008F
:1001F000635809028320C10203248102832441023F
:10020000032901028329C101032A8101832A4101B3
:10021000032B0101832BC100130101036780000040
:10022000630C0A0083274410638847011309F9FF10
:100230001304C4FF6FF0DFFB03A7440083274400CF
:100240001307F7FF631C270323A22401E38007FEA3
:1002500083A6841833172B0183AB4400B376D700F1
:1002600063920602E780070003A7440083A789146E
:10027000E31477F7E38CF4FA6FF01FF623220400FF
:100280006FF0DFFC83A6C418832544083377D700BA
:100290006318070013850A00E78007006FF0DFFC92
:0C02A00013850500E78007006FF01FFCCD
:1002AC00B7170060130101FE9387C7D82322F10012
:1002BC0037170060B7070080B7060080232E1100A7
:1002CC00232401002326010093870700130747DB33
:1002DC009386060163FCF604B707008037170060AD
:1002EC00B706008093870701130707DD93868643C3
:1002FC0063F8F604B7070080370700809387874BB5
:10030C001307074C6378F704B707008037070080A2
:10031C009387074C1307074C6374F704930541004C
:10032C0013051000EF005017EFF05FE303260700F2
:10033C00938747001307470023AEC7FE6FF09FF962
:10034C0003260700938747001307470023AEC7FE19
:10035C006FF01FFA23A00700938747006FF09FFAF6
:0C036C0023A00700938747006FF01FFBE1
:10037800930740063355F502B70700809387874BEC
:1003880023A2070023A0A700630C0504F32740F16C
:1003980037C70044032887FF8328C7FF33070501B1
:1003A8003335A70013060700371700001307078027
:1003B800B387E7009397370037070044B307F70080
:1003C80023A0C700B306150123A2D700930700088E
:1003D800F3A74730F3670430130500006780000077
:0803E8001305100067800000FE
:1003F000130101FF232481002326110013040008A8
:10040000F3374430EF00D004B7C7004403A887FF98
:1004100083A8C7FFF32740F1B70600809386864B79
:1004200003A7060083A546003307E800333507011C
:10043000130607003717000013070780B387E7008C
:100440009397370037070044B307F700B385B80028
:10045000B306B50023A0C70023A2D70073244430FD
:100460008320C10003248100130101016780000083
:10047000130101FF23261100232481002322910070
:10048000F32740F193870720370400409397C70074
:10049000B307F40083A44700B7070080938787431E
:1004A00013972400B387E70083A70700E7800700BE
:1004B000F32740F1938707209397C700B307F40011
:1004C00023A2970093071000631CF502F32740F165
:1004D0009397570013D75400B387E70093972700EB
:1004E0003304F400B72700003304F400832704002A
:1004F000331595001345F5FF3375F5002320A4004F
:100500008320C100032481008324410013010101E1
:040510006780000000
:10051400130101FF23261100EF00000A8320C1000C
:10052400B707004423A007001301010167800000FE
:10053400130101FF232481002326110023229100AB
:1005440013040500635C0504B707008093C7F7FF35
:10055400B377F5001307B000938405006390E702B6
:10056400EFF0DFF08320C100032481001385040031
:100574008324410013010101678000001307700008
:100584006396E700EFF09FE66FF0DFFD130730009E
:100594006396E700EFF0DFF76FF0DFFCB71500605C
:1005A40013065000938545D913051000EF0000127F
:0805B40013051400EF004011D3
:1005BC00130101FF1305A00023261100EF004010CA
:0805CC00130500006780000028
:0805D400130500006780000020
:0805DC00130500006780000018
:0805E400130500006780000010
:0805EC00130500006780000008
:0805F400130500006780000000
:0805FC001305000067800000F8
:080604001305000067800000EF
:08060C001305000067800000E7
:080614001305000067800000DF
:08061C001305000067800000D7
:080624001305000067800000CF
:08062C001305000067800000C7
:080634001305000067800000BF
:08063C001305000067800000B7
:080644001305000067800000AF
:08064C001305000067800000A7
:0806540013050000678000009F
:08065C00130500006780000097
:0806640013050000678000008F
:08066C00130500006780000087
:0806740013050000678000007F
:08067C00130500006780000077
:0806840013050000678000006F
:08068C00130500006780000067
:0806940013050000678000005F
:08069C00130500006780000057
:0806A40013050000678000004F
:0806AC00130500006780000047
:0806B40013050000678000003F
:0806BC00130500006780000037
:0806C40013050000678000002F
:0406CC006F000000BB
:1006D000B70700801307900023A0E74C1305F0FF35
:0406E000678000002F
:0806E4002320B500678000002F
:0806EC000325050067800000F2
:1006F4009395050193D505012310B500678000008B
:080704000355050067800000A9
:0C070C0093F5F50F2300B5006780000096
:080718000345050067800000A5
:100720006304050A9307700063E0D70AB727000047
:10073000637CF608130101FE232C8100232821018C
:100740001304060013890500232A91009375F60F00
:10075000930405001354544013058900232E1100FF
:10076000232631011374847F93890600EFF01FFA6A
:100770001305C900B3653401EFF05FF913050901F2
:1007800023A02401EFF05FF9137525006312050221
:10079000238204008320C1010324810183244101B9
:1007A000032901018329C1001301010267800000B0
:1007B00003A5040013054500EFF01FF603A5040090
:0C07C000130505016FF01FFC67800000AE
:1007CC00630805066386050663040606130101FF2C
:1007DC0023248100232291002320210123261100B0
:1007EC001309050013840500B384C500631E94002F
:1007FC008320C100032481008324410003290100CC
:10080C001301010167800000032509001305050190
:10081C00EFF0DFEF13751500E30805FE83450400C8
:10082C000325090013041400EFF09FED6FF01FFC7B
:04083C0067800000D1
:10084000630A050A130101FE232C8100232E1100E7
:10085000232A9100232821012326310113040500B6
:100860001305000063800504630E060203250400DF
:10087000138905009304060013050501EFF0DFE975
:1008800083474400B304990093090900B367F50056
:100890002302F40093772500338529416384070000
:1008A000639099028320C1010324810183244101C3
:1008B000032901018329C10013010102678000009F
:1008C000032504009389190013054500EFF0DFE4C8
:1008D000A38FA9FE0325040013050501EFF0DFE354
:1008E00083474400B367F5002302F40093772500A3
:0C08F0006FF09FFA130500006780000005
:1008FC006302050663800506130101FF23248100B2
:10090C002322910023261100930405001384050073
:10091C0083470400639C07008320C10003248100EB
:10092C0083244100130101016780000003A504002A
:10093C0013050501EFF09FDD13751500E30805FEA7
:10094C008345040003A5040013041400EFF05FDBDF
:08095C006FF01FFC6780000032
:10096400130101FF2324810023229100232021016C
:1009740023261100130405002320B40093840500EA
:100984002322C5001389050813850400930500007C
:1009940093844400EFF05FD7E39824FF8327440057
:1009A40013071000638AE702638407061307200015
:1009B400639AE70A03250400032481008320C1000D
:1009C40083244100032901009305F0FF1305050862
:1009D400130101016FF0DFD003250400B704010007
:1009E4009385F4FF13050508EFF09FD00325040059
:1009F400032481008320C100032901009385F4FFAF
:100A04008324410013054508130101016FF05FCEF3
:100A1400032504009305F00F13050508EFF0DFCE5E
:100A2400032504009305F00F13054508EFF0DFCD0F
:100A3400032504009305F00F13058508EFF0DFCCC0
:100A440003250400032481008320C1008324410082
:100A5400032901009305F00F1305C50813010101D3
:100A64006FF09FCA8320C1000324810083244100C6
:0C0A74000329010013010101678000004C
:100A800083274500130101FF2324810023229100C5
:100A9000232611001307100013040500938405009A
:100AA0006386E702638E0704130720006396E70A54
:100AB00003250500032481008320C1008324410015
:100AC0001305050A130101016FF0DFC103250500BD
:100AD0009395050193D505011305050AEFF09FC114
:100AE00003250400032481008320C10093D5040161
:100AF000832441001305450A130101016FF09FBFD4
:100B00000325050093F5F50F1305050AEFF01FC047
:100B10000325040093D5840093F5F50F1305450ACA
:100B2000EFF0DFBE0325040093D5040193F5F50F24
:100B30001305850AEFF09FBD0325040003248100FF
:100B40008320C10093D58401832441001305C50A85
:100B5000130101016FF09FBB8320C10003248100BA
:0C0B6000832441001301010167800000A4
:100B6C0083274500130101FF232481002326110054
:100B7C0023229100232021011307100013040500E8
:100B8C006388E70263840706130720006398E70A6B
:100B9C0003250500032481008320C1008324410028
:100BAC000329010013050509130101016FF05FB35F
:100BBC000325050013050509EFF01FB49304050088
:100BCC000325040013054509EFF01FB313150501A8
:100BDC00336595008320C1000324810083244100E8
:100BEC0003290100130101016780000003250500A2
:100BFC0013050509EFF09FB19304050003250400CC
:100C0C0013054509EFF09FB01309050003250400F7
:100C1C001319890013058509EFF05FAF1315050152
:100C2C003369A90003250400B36499001305C509B1
:100C3C00EFF0DFAD131585016FF09FF91305000080
:040C4C006FF05FF9ED
:100C500037050080130101FF1305055523261100F8
:100C6000EFF0DFF0B707008003A74700930680008E
:100C7000938747001317170063E2E60223A0E700FB
:100C800083A507008320C100B365B5003705008048
:100C900013058554130101016FF09FDE1307100047
:040CA0006FF0DFFD15
:100CA400130101FE232E1100232C8100F32740F1B0
:100CB4001387070493167700370700403307D700DC
:100CC4002320070093060000370700409305F00136
:100CD400139626003306C7002322060093861600C7
:100CE400E398B6FE938707209397C700B307F700EE
:100CF40023A00700B717000093870780F3A74730A6
:100D04003705008013062000B7250070130505552C
:100D1400EFF01FC53705008013062000B75500709B
:100D240013058554EFF0DFC33704008093061000E9
:100D340013062002B715007013058455EFF01F9EAB
:100D4400B707008083A5070013058455EFF0DFBAC9
:100D54003795F701130505A4EFF0CFE11306100052
:100D64009305F10013058455EFF05FAD1375F50F8E
:100D7400E30605FE130610009305F10013058455E0
:080D8400EFF09FA46FF09FFD4A
:080D8C0068656C6C6F0000004B
:080D9400747261700A00000096
:100D9C000D0A48656C6C6F20576F726C64210A0DDC
:080DAC000000000043000000FC
:100DB4009C0D006001000000100000801000008005
:100DD00000000000FC02008064030080CC0300805F
:100DE0000000000000000000000000000000000003
:100DF00000000000000000000000000000000000F3
:100E000000000000B00D00600000000000000000C5
:100E100000000000000000000000000000000000D2
:100E200000000000000000000000000000000000C2
:100E300000000000000000000000000000000000B2
:100E400000000000000000000000000000000000A2
:100E50000000000000000000000000000000000092
:100E60000000000000000000000000000000000082
:100E70000000000000000000010000000000000071
:100E80000E33CDAB34126DE6ECDE05000B00000036
:100E90000000000000000000000000000000000052
:100EA0000000000000000000000000000000000042
:100EB0000000000000000000000000000000000032
:100EC0000000000000000000000000000000000022
:1011F800CC050060D4050060DC050060E4050060F3
:10120800EC050060F4050060FC0500600406006061
:101218000C060060140600601C06006024060060CE
:101228002C060060340600603C060060440600603E
:101238004C060060540600605C06006064060060AE
:101248006C060060740600607C060060840600601E
:101258008C060060940600609C060060A40600608E
:10126800AC060060B4060060BC060060C4060060FE
:040000056000000097
:00000001FF
