:100000006F00C0006F0000006F00C0029702000088
:10001000938282027390523073500030735040309C
:10002000970100209381017E171100201301811692
:100030006F000013130101F8232011002322210077
:10004000232431002326410023285100232A610064
:10005000232C7100232E8100232091022322A10250
:100060002324B1022326C1022328D102232AE1023C
:10007000232CF102232E0103232011052322210525
:10008000232431052326410523285105232A610510
:10009000232C7105232E8105232091072322A107FC
:1000A0002324B1072326C1072328D107232AE107E8
:1000B000232CF107F3221034232E5106732520340C
:1000C000F325103413060100EF00C02A7310153415
:1000D000B72200009382028073A0023083200100C7
:1000E00003214100832181000322C10083220101F9
:1000F00003234101832381010324C10183240102DD
:1001000003254102832581020326C10283260103C0
:1001100003274103832781030328C10383280104A4
:100120000329410483298104032AC104832A010588
:10013000032B4105832B8105032CC105832C01066C
:10014000032D4106832D8106032EC106832E010750
:10015000032F4107832F810713010108730020300B
:10016000B7070060130101FE938707642322F100A3
:1001700037070060B7070080232E110023240100F9
:1001800023260100938707001307076593860181E3
:1001900063F6F604B707008037070060938707010E
:1001A000130707669386018F63F4F6049387018F24
:1001B000138701906378F70493870190138701995F
:1001C0006378F7049305410013051000EF00C03E6B
:1001D0008320C1011301010267800000032607008C
:1001E000938747001307470023AEC7FE6FF05FFAFF
:1001F00003260700938747001307470023AEC7FE77
:100200006FF09FFA23A00700938747006FF09FFAD3
:1002100023A00700938747006FF09FFA00000000BB
:100220006780000000000000130101FF232481000B
:100230002326110013040008F3374430EF00801D1B
:10024000B7C7004403A887FF83A8C7FFF32740F17F
:100250009386018F03A7060083A546003307E800B5
:10026000333507011306070037170000130707800F
:10027000B387E7009397370037070044B307F700C9
:10028000B385B800B306B50023A0C70023A2D700EA
:10029000732444308320C100032481001301010131
:1002A0006780000000000000130101FF23261100F9
:1002B0002324810023229100F32740F19387072014
:1002C000370400409397C700B307F40083A44700A6
:1002D000B70700809387070113972400B387E700CF
:1002E00083A70700E7800700F32740F193870720E3
:1002F0009397C700B307F40023A297009307100059
:10030000631CF502F32740F19397570013D754006D
:10031000B387E700939727003304F400B727000062
:100320003304F40083270400331595001345F5FFCB
:100330003375F5002320A4008320C100032481002D
:1003400083244100130101016780000000000000C8
:10035000130101FF23261100EF00800A8320C10052
:10036000B707004423A007001301010167800000C4
:1003700000000000130101FF232481002326110047
:100380002322910013040500635C0504B707008075
:1003900093C7F7FFB377F5001307B0009384050008
:1003A0006390E702EFF05FF08320C1000324810037
:1003B00013850400832441001301010167800000BC
:1003C000130770006396E700EFF01FE66FF0DFFDA4
:1003D000130730006396E700EFF09FF76FF0DFFC44
:1003E000B70500601306500093858564130510005F
:1003F000EF00001D13051400EF00401A000000007C
:10040000130101FF1305A00023261100EF000019BE
:1004100000000000678000000000000013050000DD
:1004200067800000000000001305000067800000E6
:1004300000000000130500006780000000000000BD
:100440001305000067800000000000001305000095
:1004500067800000000000001305000067800000B6
:10046000000000001305000067800000000000008D
:100470001305000067800000000000001305000065
:100480006780000000000000130500006780000086
:10049000000000001305000067800000000000005D
:1004A0001305000067800000000000001305000035
:1004B0006780000000000000130500006780000056
:1004C000000000001305000067800000000000002D
:1004D0001305000067800000000000001305000005
:1004E0006780000000000000130500006780000026
:1004F00000000000130500006780000000000000FD
:1005000013050000678000000000000013050000D4
:1005100067800000000000001305000067800000F5
:1005200000000000130500006780000000000000CC
:1005300013050000678000000000000013050000A4
:1005400067800000000000001305000067800000C5
:10055000000000001305000067800000000000009C
:100560001305000067800000000000001305000074
:100570006780000000000000130500006780000095
:10058000000000001305000067800000000000006C
:100590001305000067800000000000006F000000ED
:1005A000000000001307900023A0E1901305F0FF66
:1005B00067800000000000006F00000000000000E5
:1005C00097070020938707A493060600138605006B
:1005D0009305050003A507006F00800000000000E0
:1005E000130101FF23248100130405001385050076
:1005F00093050600138606009707002023A407B082
:1006000023261100EFF01FFA9307F0FF631CF5009B
:1006100097070020938707AF83A70700638407002D
:100620002320F4008320C100032481001301010171
:1006300067800000000000000000000000000000D3
:1006400068656C6C6F000000747261700A000000D5
:10065000900000800000000000000000000000008A
:100660001C04006028040060340400604004006042
:100670004C04006058040060640400607004006072
:100680007C0400608804006094040060A0040060A2
:10069000AC040060B8040060C4040060D0040060D2
:1006A000DC040060E8040060F40400600005006001
:1006B0000C0500601805006024050060300500602E
:1006C0003C0500604805006054050060600500605E
:1006D0006C0500607805006084050060900500608E
:1006E000000000000000000000000000000000000A
:1006F00000000000000000000000000000000000FA
:1007000000000000000000000000000000000000E9
:1007100000000000000000000000000000000000D9
:1007200000000000000000000000000000000000C9
:1007300000000000000000000000000000000000B9
:040000056000000097
:00000001FF
