:100000006F00C0006F0000006F0040039702000007
:10001000938202037390523073500030735030302B
:100020007350203073504030970100209381817DC0
:1000300017110020130101D36F004032130101F8A2
:1000400023201100232221002324310023264100F4
:1000500023285100232A6100232C7100232E8100C4
:10006000232091022322A1022324B1022326C102CC
:100070002328D102232AE102232CF102232E01039B
:1000800023201105232221052324310523264105A0
:1000900023285105232A6105232C7105232E810570
:1000A000232091072322A1072324B1072326C10778
:1000B0002328D107232AE107232CF107F322103448
:1000C000232E510673252034F32510341306010026
:1000D000EF00006E73101534B72200009382028087
:1000E00073A002308320010003214100832181009D
:1000F0000322C100832201010323410183238101E3
:100100000324C101832401020325410283258102C6
:100110000326C102832601030327410383278103AA
:100120000328C1038328010403294104832981048E
:10013000032AC104832A0105032B4105832B810572
:10014000032CC105832C0106032D4106832D810656
:10015000032EC106832E0107032F4107832F81073A
:100160001301010873002030130101FF9305000003
:10017000232481002326110013040500EF00000250
:10018000B707008003A587008327C50363840700A2
:10019000E780070013050400EF00D02F130101FDD5
:1001A000B7070080232E310183A98700232C41014A
:1001B000232A5101232861012326110223248102CD
:1001C000232291022320210323267101930A050093
:1001D000138A0500130B100083A48914638C040098
:1001E00003A444001309F4FF13142400338484008F
:1001F000635809028320C10203248102832441023F
:10020000032901028329C101032A8101832A4101B3
:10021000032B0101832BC100130101036780000040
:10022000630C0A0083274410638847011309F9FF10
:100230001304C4FF6FF0DFFB03A7440083274400CF
:100240001307F7FF631C270323A22401E38007FEA3
:1002500083A6841833172B0183AB4400B376D700F1
:1002600063920602E780070003A7440083A789146E
:10027000E31477F7E38CF4FA6FF01FF623220400FF
:100280006FF0DFFC83A6C418832544083377D700BA
:100290006318070013850A00E78007006FF0DFFC92
:0C02A00013850500E78007006FF01FFCCD
:1002AC00130101FE232E8100130401022326A4FE58
:1002BC002324B4FE2322C4FE6F00C0028327C4FE95
:1002CC0003A70700832784FE23A0E7008327C4FE2F
:1002DC00938747002326F4FE832784FE93874700E9
:1002EC002324F4FE032784FE832744FEE3F8E7FC73
:1002FC00130000000324C1011301010267800000F8
:10030C00130101FD2326810213040103232EA4FCF7
:10031C00232CB4FC8327C4FD2326F4FE6F0080013C
:10032C008327C4FE23A007008327C4FE93874700BE
:10033C002326F4FE0327C4FE832784FDE3F2E7FEA5
:10034C00130000000324C1021301010367800000A5
:10035C00130101FE232E1100232C81001304010232
:10036C00B72700609387C7872326F4FE8327C4FE34
:10037C002320F4FE232204FE232404FEB70700806E
:10038C0013860701B707008093850700B727006025
:10039C0013854792EFF0DFF0B70700801386874391
:1003AC00B707008093850701B72700601385079472
:1003BC00EFF01FEFB70700809385074CB70700805D
:1003CC001385874BEFF0DFF3B70700809385074C5D
:1003DC00B70700801385074CEFF09FF2930704FEDC
:1003EC009385070013051000EF10403C93070500A0
:0803FC0013850700EFF09FD606
:10040400130101FD2326810213040103232EA4FCFE
:10041400F32740F12326F4FE8327C4FE2324F4FEAD
:10042400370700408327C4FD93D75700832684FEF3
:1004340093965600B386F600B7170000938707809B
:10044400B387F60093972700B307F70083A7070045
:100454002322F4FE8327C4FD93F7F701130710004A
:10046400B317F70093C7F7FF032744FEB377F700EA
:100474002322F4FE370700408327C4FD93D7570097
:10048400832684FE93965600B386F600B7170000C1
:1004940093870780B387F60093972700B307F70085
:1004A400032744FE23A0E700130000000324C10235
:0804B400130101036780000041
:1004BC00130101FE232E810013040102F32740F1E6
:1004CC002326F4FE8327C4FE2324F4FE37070040C2
:1004DC00832784FE938707209397C700B307F70001
:1004EC0083A74700138507000324C10113010102F0
:0404FC006780000015
:10050000130101FD2326810213040103232EA4FC01
:10051000F32740F12326F4FE8327C4FE2324F4FEB0
:1005200037070040832784FE938707209397C700EF
:10053000B307F7000327C4FD23A2E7001300000060
:0C0540000324C1021301010367800000C6
:10054C00130101FE232E810013040102F367043012
:10055C002326F4FE130000000324C1011301010241
:04056C0067800000A4
:10057000130101FD23261102232481021304010328
:10058000232EA4FC130710002326E4FE8326C4FDBB
:100590001307400633D7E60293070700130800004D
:1005A00037070080232CF74A232E074BB70700801C
:1005B00083A6874B03A7C74B93870600B3E7E700E3
:1005C00063860708F32740F12324F4FE832784FE83
:1005D0002322F4FE37070044B7C70000B307F70033
:1005E00003A8C7FF83A787FF370700808325874BB2
:1005F0000326C74B37050044B386B700938806002F
:10060000B3B8F8003307C800B387E80013870700C2
:100610009387060013080700832644FE371700005F
:10062000130707803387E600131737003307E50009
:100630002320F7002322070193070008F3A7473080
:100640002320F4FEEFF09FF0232604FE8327C4FE50
:10065000138507008320C1020324810213010103D3
:0406600067800000AF
:10066400130101FE232E1100232C81001304010227
:1006740093070008F3B747302326F4FEEF10000A6F
:1006840037070044B7C70000B307F70003A8C7FF44
:1006940083A787FF370700808325874B0326C74B33
:1006A40037050044732740F12324E4FE832884FEA5
:1006B400B386B700138306003333F3003307C8004F
:1006C400B307E300138707009387060013080700A6
:1006D40037170000130707803387E8001317370024
:1006E4003307E5002320F7002322070193070008BE
:1006F400F3A747302322F4FE130000008320C10136
:0C07040003248101130101026780000042
:10071000130101FE232E1100232C8100130401027A
:10072000EFF0DFD92326A4FEA30504FEB70700805F
:100730000327C4FE1317270093878743B307F700E7
:1007400083A70700E780070093070500A305F4FED1
:100750000325C4FEEFF0DFDA0347B4FE9307100071
:100760006316F7000325C4FEEFF0DFC91300000095
:100770008320C1010324810113010102678000006D
:10078000130101FF2326110023248100130401011A
:10079000EF00C00EB707004423A0070013000000BD
:1007A0008320C10003248100130101016780000040
:1007B000130101FE232E1100232C810013040102DA
:1007C0002326A4FE2324B4FE8327C4FE63D207029B
:1007D0000327C4FEB707008093C7F7FF3377F700FE
:1007E0009307B0006316F700EFF09FF26F008007E9
:1007F0008327C4FE63D207020327C4FEB707008025
:1008000093C7F7FF3377F700930770006316F7007D
:10081000EFF05FE56F0000058327C4FE63D2070297
:100820000327C4FEB707008093C7F7FF3377F700AD
:10083000930730006316F700EFF09FF46F0080021B
:1008400013065000B72700609385478813051000F2
:10085000EF0080488327C4FE9387170013850700A5
:10086000EF004043832784FE138507008320C101E6
:0C087000032481011301010267800000D5
:10087C00130101FF2326110023248100130401011D
:08088C001305A000EF0040403D
:10089400130101FF232681001304010193070000C3
:1008A400138507000324C1001301010167800000C0
:1008B400130101FF232681001304010193070000A3
:1008C400138507000324C1001301010167800000A0
:1008D400130101FF23268100130401019307000083
:1008E400138507000324C100130101016780000080
:1008F400130101FF23268100130401019307000063
:10090400138507000324C10013010101678000005F
:10091400130101FF23268100130401019307000042
:10092400138507000324C10013010101678000003F
:10093400130101FF23268100130401019307000022
:10094400138507000324C10013010101678000001F
:10095400130101FF23268100130401019307000002
:10096400138507000324C1001301010167800000FF
:10097400130101FF232681001304010193070000E2
:10098400138507000324C1001301010167800000DF
:10099400130101FF232681001304010193070000C2
:1009A400138507000324C1001301010167800000BF
:1009B400130101FF232681001304010193070000A2
:1009C400138507000324C10013010101678000009F
:1009D400130101FF23268100130401019307000082
:1009E400138507000324C10013010101678000007F
:1009F400130101FF23268100130401019307000062
:100A0400138507000324C10013010101678000005E
:100A1400130101FF23268100130401019307000041
:100A2400138507000324C10013010101678000003E
:100A3400130101FF23268100130401019307000021
:100A4400138507000324C10013010101678000001E
:100A5400130101FF23268100130401019307000001
:100A6400138507000324C1001301010167800000FE
:100A7400130101FF232681001304010193070000E1
:100A8400138507000324C1001301010167800000DE
:100A9400130101FF232681001304010193070000C1
:100AA400138507000324C1001301010167800000BE
:100AB400130101FF232681001304010193070000A1
:100AC400138507000324C10013010101678000009E
:100AD400130101FF23268100130401019307000081
:100AE400138507000324C10013010101678000007E
:100AF400130101FF23268100130401019307000061
:100B0400138507000324C10013010101678000005D
:100B1400130101FF23268100130401019307000040
:100B2400138507000324C10013010101678000003D
:100B3400130101FF23268100130401019307000020
:100B4400138507000324C10013010101678000001D
:100B5400130101FF23268100130401019307000000
:100B6400138507000324C1001301010167800000FD
:100B7400130101FF232681001304010193070000E0
:100B8400138507000324C1001301010167800000DD
:100B9400130101FF232681001304010193070000C0
:100BA400138507000324C1001301010167800000BD
:100BB400130101FF232681001304010193070000A0
:100BC400138507000324C10013010101678000009D
:100BD400130101FF23268100130401019307000080
:100BE400138507000324C10013010101678000007D
:100BF400130101FF23268100130401019307000060
:100C0400138507000324C10013010101678000005C
:100C1400130101FF2326810013040101930700003F
:100C2400138507000324C10013010101678000003C
:100C3400130101FF2326810013040101930700001F
:100C4400138507000324C10013010101678000001C
:100C5400130101FF232681001304010193070000FF
:100C6400138507000324C1001301010167800000FC
:100C7400130101FF232681001304010193070000DF
:100C8400138507000324C1001301010167800000DC
:100C9400130101FE232E8100130401022326A4FE66
:040CA4006F000000DD
:100CA800130101FE232E8100130401022326A4FE52
:100CB800B70700800327C4FE23A0E74C9307F0FF83
:100CC800138507000324C101130101026780000096
:100CD800130101FE232E1100232C810013040102AD
:100CE8002326A4FE2324B4FE2322C4FE1305900069
:100CF800EFF01FFB93070500138507008320C10150
:0C0D080003248101130101026780000038
:100D1400130101FD2326810213040103232EA4FCE5
:100D2400232CB4FC8327C4FD2326F4FE8327C4FEAE
:100D3400032784FD23A0E700130000000324C1025D
:080D44001301010367800000A8
:100D4C00130101FD2326810213040103232EA4FCAD
:100D5C008327C4FD2326F4FE8327C4FE83A7070044
:100D6C00138507000324C1021301010367800000EF
:100D7C00130101FD2326810213040103232EA4FC7D
:100D8C00232CB4FC8327C4FD2326F4FE832784FD87
:100D9C0013970701135707018327C4FE2390E7001D
:100DAC00130000000324C10213010103678000003B
:100DBC00130101FD2326810213040103232EA4FC3D
:100DCC008327C4FD2326F4FE8327C4FE83D70700A4
:100DDC009397070193D70701138507000324C102DA
:080DEC00130101036780000000
:100DF400130101FD2326810213040103232EA4FC05
:100E0400232CB4FC8327C4FD2326F4FE832784FD0E
:100E140013F7F70F8327C4FE2380E70013000000B5
:0C0E24000324C1021301010367800000D9
:100E3000130101FD2326810213040103232EA4FCC8
:100E40008327C4FD2326F4FE8327C4FE83C707003F
:100E500093F7F70F138507000324C1021301010361
:040E600067800000A7
:100E6400130101FD2326110223248102130401032B
:100E7400232EA4FC232CB4FC93070600138706003E
:100E8400231BF4FC93070700A30AF4FC8327C4FD87
:100E9400638E070C034754FD9307700063E8E70C67
:100EA400035764FDB72700006372F70C832784FDA2
:100EB40013878700835764FD93F7F70F9385070023
:100EC40013050700EFF0DFF2832784FD9386C70044
:100ED400034754FD835764FD93D7574093F7877FA7
:100EE400B367F7009385070013850600EFF05FF002
:100EF4008327C4FD032784FD23A0E7008327C4FDC3
:100F040083A707009387070113850700EFF01FF2FB
:100F14009307050093F72700A307F4FE6F0000046E
:100F24008327C4FD83A70700938747001385070021
:100F3400EFF0DFEF930705002307F4FE8327C4FDDA
:100F440083A707009387070113850700EFF01FEEBF
:100F54009307050093F72700A307F4FE8347F4FEE5
:100F6400E39007FC8327C4FD2382070013000000DD
:100F74008320C1020324810213010103678000005E
:100F8400130101FD2326110223248102130401030A
:100F9400232EA4FC232CB4FC232AC4FC8327C4FDE5
:100FA40063800708832784FD638C0706832744FD39
:100FB40063880706232604FE6F00C0058327C4FD4B
:100FC40083A707009387070113850700EFF01FE647
:100FD4009307050093F71700A305F4FE8347B4FEB7
:100FE400E38E07FC8327C4FD83A60700032784FD43
:100FF4008327C4FEB307F70083C707009385070060
:1010040013850600EFF0DFDE8327C4FE9387170005
:101014002326F4FE0327C4FE832744FDE360F7FA86
:10102400130000008320C102032481021301010381
:0410340067800000D1
:10103800130101FD23261102232481022322910298
:1010480013040103232EA4FC232CB4FC232AC4FC80
:10105800232404FE8327C4FD6386070E832784FDAB
:101068006382070E832744FD638E070C232404FE46
:101078008327C4FD83A7070093870701138507000B
:10108800EFF09FDA93070500A303F4FE8327C4FD5E
:1010980003C74700834774FEB367F70013F7F70FDA
:1010A8008327C4FD2382E700834774FE93F7270054
:1010B800A307F4FE6F00C0078327C4FD83A70700BA
:1010C80093864700032784FD832784FEB304F70033
:1010D80013850600EFF05FD5930705002380F40021
:1010E800832784FE938717002324F4FE8327C4FDF7
:1010F80083A707009387070113850700EFF0DFD266
:1011080093070500A303F4FE8327C4FD03C7470024
:10111800834774FEB367F70013F7F70F8327C4FDFF
:101128002382E700834774FE93F72700A307F4FEA2
:101138008347F4FE63880700032784FE832744FD62
:10114800E36CF7F6832784FE138507008320C1022A
:1011580003248102832441021301010367800000F4
:10116800130101FD23261102232481021304010324
:10117800232EA4FC232CB4FC8327C4FD638007081A
:10118800832784FD638C0706232604FE6F00C005B1
:101198008327C4FD83A707009387070113850700EA
:1011A800EFF09FC89307050093F71700A305F4FE17
:1011B8008347B4FEE38E07FC8327C4FD83A607009C
:1011C800032784FD8327C4FEB307F70083C70700FE
:1011D8009385070013850600EFF05FC18327C4FEDF
:1011E800938717002326F4FE032784FD8327C4FE74
:1011F800B307F70083C70700E39C07F81300000054
:101208008320C102032481021301010367800000C7
:10121800130101FD23261102232481021304010373
:10122800232EA4FC232CB4FC232AC4FCA30704FE0D
:10123800832784FD2324F4FE8327C4FD032784FD2C
:1012480023A0E7008327C4FD032744FD23A2E7006A
:10125800A30704FE832784FD2324F4FE6F00800285
:1012680093050000032584FEEFF05FB8832784FE12
:10127800938747002324F4FE8347F4FE93871700DF
:10128800A307F4FE0347F4FE9307F001E3FAE7FC33
:101298008327C4FD83A7470013071000638AE7026A
:1012A8001307100063E4E706130720006384E700D0
:1012B8006F00000C8327C4FD83A7070093870708E6
:1012C8009305F0FF13850700EFF05FA46F00400A55
:1012D8008327C4FD83A7070013870708B707010002
:1012E8009385F7FF13050700EFF0DFA88327C4FDF8
:1012F80083A7070013874708B70701009385F7FFFF
:1013080013050700EFF01FA76F0080068327C4FDB1
:1013180083A70700938707089305F00F1385070035
:10132800EFF0DFAC8327C4FD83A707009387470846
:101338009305F00F13850700EFF05FAB8327C4FD1B
:1013480083A70700938787089305F00F1385070085
:10135800EFF0DFA98327C4FD83A707009387C70899
:101368009305F00F13850700EFF05FA81300000046
:10137800130000008320C10203248102130101032A
:04138800678000007A
:10138C00130101FE232E1100232C810013040102F2
:10139C002326A4FE2324B4FE8327C4FE83A7470080
:1013AC0013071000638AE7021307100063EEE706C9
:1013BC00130720006384E7006F0000108327C4FE2E
:1013CC0083A707009387070A832584FE13850700EC
:1013DC00EFF09F936F00400E8327C4FE83A7070096
:1013EC009387070A032784FE131707011357070176
:1013FC009305070013850700EFF09F978327C4FE22
:10140C0083A707001387470A832784FE93D7070116
:10141C009397070193D707019385070013050700DE
:10142C00EFF01F956F0040098327C4FE83A70700C8
:10143C009387070A032784FE1377F70F930507009A
:10144C0013850700EFF05F9A8327C4FE83A707007C
:10145C001387470A832784FE93D7870093F7F70FE8
:10146C009385070013050700EFF01F988327C4FE30
:10147C0083A707001387870A832784FE93D7070166
:10148C0093F7F70F9385070013050700EFF0DF952F
:10149C008327C4FE83A707001387C70A832784FE0C
:1014AC0093D7870193F7F70F938507001305070070
:1014BC00EFF09F9313000000130000008320C10184
:0C14CC000324810113010102678000006D
:1014D800130101FD232611022324810213040103B1
:1014E800232EA4FC232604FE8327C4FD83A74700DC
:1014F80013071000638AE7021307100063E2E70886
:10150800130720006384E7006F0080128327C4FD5F
:1015180083A707009387070913850700EFF09F82C9
:101528002326A4FE6F00C0108327C4FD83A70700ED
:101538009387070913850700EFF0DF8793070500F6
:10154800138707008327C4FEB3E7E7002326F4FECA
:101558008327C4FD83A707009387470913850700DE
:10156800EFF05F859307050093970701138707003E
:101578008327C4FEB3E7E7002326F4FE6F00400B81
:101588008327C4FD83A707009387070913850700EE
:10159800EFF09F8993070500138707008327C4FE90
:1015A800B3E7E7002326F4FE8327C4FD83A70700DB
:1015B8009387470913850700EFF01F8793070500F6
:1015C80093978700138707008327C4FEB3E7E700D4
:1015D8002326F4FE8327C4FD83A707009387870982
:1015E80013850700EFF05F849307050093970701C1
:1015F800138707008327C4FEB3E7E7002326F4FE1A
:101608008327C4FD83A707009387C70913850700AD
:10161800EFF09F81930705009397870113870700D1
:101628008327C4FEB3E7E7002326F4FE1300000077
:101638008327C4FE138507008320C1020324810287
:0816480013010103678000009B
:10165000130101FE232E810013040102F32740F140
:101660002324F4FE832784FE2322F4FE232604FE93
:101670006F00C00337070040832744FE939657004E
:101680008327C4FEB386F600B71700009387078050
:10169000B387F60093972700B307F70023A007004E
:1016A0008327C4FE938717002326F4FE8327C4FEF6
:1016B000E38207FC232604FE6F0040023707004048
:1016C0008327C4FE93972700B307F70023A20700E0
:1016D0008327C4FE938717002326F4FE0327C4FE46
:1016E0009307E001E3FCE7FC37070040832744FE53
:1016F000938707209397C700B307F70023A007003D
:10170000B717000093870780F3A747302320F4FE24
:10171000130000000324C1011301010267800000CF
:10172000130101FE232E1100232C8100130401025A
:10173000B707008013850755EFF01FDA2326A4FEB4
:101740008327C4FE93C7F7FF93F7070F2324F4FE04
:10175000B707008083A7470013971700B7070080DB
:1017600023A2E700B707008003A7470093074000C4
:1017700063F8E700B70700801307100023A2E70013
:10178000B707008083A74700032784FEB367F700ED
:101790002324F4FE832584FEB70700801385875435
:1017A000EFF0DFBE130000008320C101032481019C
:0817B000130101026780000033
:1017B800130101FD232611022324810213040103CE
:1017C800232EA4FC232CB4FCEFF01FE81306200002
:1017D800B7250070B707008013850755EFF05FA3A2
:1017E80013062000B7550070B7070080138587548B
:1017F800EFF01FA2930610001306C002B715007081
:10180800B707008013858755EFF04FE5B7070080CD
:1018180083A7070093850700B707008013858755BE
:10182800EFF01F94B7477902138507D6EFE0DFD3AF
:101838009307E4FE1306100093850700B70700809E
:1018480013858755EFF0CFFE93070500A307F4FE35
:101858008347F4FEE38E07FC9307E4FE13061000AB
:1018680093850700B707008013858755EFF00FF1C0
:041878006FF01FFCF2
:10187C0068656C6C6F000000747261700A00000087
:10188C000D0A53797374656D2074696D657220420D
:10189C006C696E6B79204578616D706C652E200AD1
:1018AC000D204F62736572766520746865204C4517
:1018BC00447320626C696E6B696E67206F6E207466
:1018CC00686520626F6172642E20546865204C45F7
:1018DC0044207061747465726E73206368616E6706
:1018EC006573202065766572792074696D65206159
:1018FC002073797374656D2074696D657220696EDF
:10190C0074657272757074206F63637572730D0AEF
:01191C0000CA
:041920004300000080
:101924008C1800600100000010000080100000808E
:1019400000000000FC02008064030080CC030080E3
:101950000000000000000000000000000000000087
:101960000000000000000000000000000000000077
:1019700000000000201900600000000000000000CE
:101980000000000000000000000000000000000057
:101990000000000000000000000000000000000047
:1019A0000000000000000000000000000000000037
:1019B0000000000000000000000000000000000027
:1019C0000000000000000000000000000000000017
:1019D0000000000000000000000000000000000007
:1019E00000000000000000000100000000000000F6
:1019F0000E33CDAB34126DE6ECDE05000B000000BB
:101A000000000000000000000000000000000000D6
:101A100000000000000000000000000000000000C6
:101A200000000000000000000000000000000000B6
:101A300000000000000000000000000000000000A6
:101D680094080060B4080060D4080060F4080060BB
:101D780014090060340900605409006074090060A7
:101D880094090060B4090060D4090060F409006097
:101D9800140A0060340A0060540A0060740A006083
:101DA800940A0060B40A0060D40A0060F40A006073
:101DB800140B0060340B0060540B0060740B00605F
:101DC800940B0060B40B0060D40B0060F40B00604F
:101DD800140C0060340C0060540C0060740C00603B
:040000056000000097
:00000001FF
